{
  "_format": "hh-sol-artifact-1",
  "contractName": "MyNFT",
  "sourceName": "contracts/MyToken.sol",
  "abi": [
    {
      "inputs": [],
      "stateMutability": "nonpayable",
      "type": "constructor"
    },
    {
      "anonymous": false,
      "inputs": [
        {
          "indexed": true,
          "internalType": "address",
          "name": "owner",
          "type": "address"
        },
        {
          "indexed": true,
          "internalType": "address",
          "name": "approved",
          "type": "address"
        },
        {
          "indexed": true,
          "internalType": "uint256",
          "name": "tokenId",
          "type": "uint256"
        }
      ],
      "name": "Approval",
      "type": "event"
    },
    {
      "anonymous": false,
      "inputs": [
        {
          "indexed": true,
          "internalType": "address",
          "name": "owner",
          "type": "address"
        },
        {
          "indexed": true,
          "internalType": "address",
          "name": "operator",
          "type": "address"
        },
        {
          "indexed": false,
          "internalType": "bool",
          "name": "approved",
          "type": "bool"
        }
      ],
      "name": "ApprovalForAll",
      "type": "event"
    },
    {
      "anonymous": false,
      "inputs": [
        {
          "indexed": false,
          "internalType": "uint256",
          "name": "_fromTokenId",
          "type": "uint256"
        },
        {
          "indexed": false,
          "internalType": "uint256",
          "name": "_toTokenId",
          "type": "uint256"
        }
      ],
      "name": "BatchMetadataUpdate",
      "type": "event"
    },
    {
      "anonymous": false,
      "inputs": [
        {
          "indexed": false,
          "internalType": "uint256",
          "name": "_tokenId",
          "type": "uint256"
        }
      ],
      "name": "MetadataUpdate",
      "type": "event"
    },
    {
      "anonymous": false,
      "inputs": [
        {
          "indexed": true,
          "internalType": "address",
          "name": "from",
          "type": "address"
        },
        {
          "indexed": true,
          "internalType": "address",
          "name": "to",
          "type": "address"
        },
        {
          "indexed": true,
          "internalType": "uint256",
          "name": "tokenId",
          "type": "uint256"
        }
      ],
      "name": "Transfer",
      "type": "event"
    },
    {
      "inputs": [
        {
          "internalType": "uint256",
          "name": "",
          "type": "uint256"
        }
      ],
      "name": "_promptDescription",
      "outputs": [
        {
          "internalType": "string",
          "name": "",
          "type": "string"
        }
      ],
      "stateMutability": "view",
      "type": "function"
    },
    {
      "inputs": [],
      "name": "_tokenIdCounter",
      "outputs": [
        {
          "internalType": "uint256",
          "name": "_value",
          "type": "uint256"
        }
      ],
      "stateMutability": "view",
      "type": "function"
    },
    {
      "inputs": [
        {
          "internalType": "address",
          "name": "to",
          "type": "address"
        },
        {
          "internalType": "uint256",
          "name": "tokenId",
          "type": "uint256"
        }
      ],
      "name": "approve",
      "outputs": [],
      "stateMutability": "nonpayable",
      "type": "function"
    },
    {
      "inputs": [
        {
          "internalType": "address",
          "name": "owner",
          "type": "address"
        }
      ],
      "name": "balanceOf",
      "outputs": [
        {
          "internalType": "uint256",
          "name": "",
          "type": "uint256"
        }
      ],
      "stateMutability": "view",
      "type": "function"
    },
    {
      "inputs": [
        {
          "internalType": "uint256",
          "name": "tokenId",
          "type": "uint256"
        }
      ],
      "name": "getApproved",
      "outputs": [
        {
          "internalType": "address",
          "name": "",
          "type": "address"
        }
      ],
      "stateMutability": "view",
      "type": "function"
    },
    {
      "inputs": [
        {
          "internalType": "address",
          "name": "owner",
          "type": "address"
        },
        {
          "internalType": "address",
          "name": "operator",
          "type": "address"
        }
      ],
      "name": "isApprovedForAll",
      "outputs": [
        {
          "internalType": "bool",
          "name": "",
          "type": "bool"
        }
      ],
      "stateMutability": "view",
      "type": "function"
    },
    {
      "inputs": [
        {
          "internalType": "address",
          "name": "to",
          "type": "address"
        },
        {
          "internalType": "string",
          "name": "ipfsUrl",
          "type": "string"
        }
      ],
      "name": "mint",
      "outputs": [],
      "stateMutability": "nonpayable",
      "type": "function"
    },
    {
      "inputs": [],
      "name": "name",
      "outputs": [
        {
          "internalType": "string",
          "name": "",
          "type": "string"
        }
      ],
      "stateMutability": "view",
      "type": "function"
    },
    {
      "inputs": [
        {
          "internalType": "uint256",
          "name": "tokenId",
          "type": "uint256"
        }
      ],
      "name": "ownerOf",
      "outputs": [
        {
          "internalType": "address",
          "name": "",
          "type": "address"
        }
      ],
      "stateMutability": "view",
      "type": "function"
    },
    {
      "inputs": [
        {
          "internalType": "uint256",
          "name": "value",
          "type": "uint256"
        }
      ],
      "name": "promptDescription",
      "outputs": [
        {
          "internalType": "string",
          "name": "",
          "type": "string"
        }
      ],
      "stateMutability": "view",
      "type": "function"
    },
    {
      "inputs": [
        {
          "internalType": "address",
          "name": "from",
          "type": "address"
        },
        {
          "internalType": "address",
          "name": "to",
          "type": "address"
        },
        {
          "internalType": "uint256",
          "name": "tokenId",
          "type": "uint256"
        }
      ],
      "name": "safeTransferFrom",
      "outputs": [],
      "stateMutability": "nonpayable",
      "type": "function"
    },
    {
      "inputs": [
        {
          "internalType": "address",
          "name": "from",
          "type": "address"
        },
        {
          "internalType": "address",
          "name": "to",
          "type": "address"
        },
        {
          "internalType": "uint256",
          "name": "tokenId",
          "type": "uint256"
        },
        {
          "internalType": "bytes",
          "name": "data",
          "type": "bytes"
        }
      ],
      "name": "safeTransferFrom",
      "outputs": [],
      "stateMutability": "nonpayable",
      "type": "function"
    },
    {
      "inputs": [
        {
          "internalType": "address",
          "name": "operator",
          "type": "address"
        },
        {
          "internalType": "bool",
          "name": "approved",
          "type": "bool"
        }
      ],
      "name": "setApprovalForAll",
      "outputs": [],
      "stateMutability": "nonpayable",
      "type": "function"
    },
    {
      "inputs": [
        {
          "internalType": "bytes4",
          "name": "interfaceId",
          "type": "bytes4"
        }
      ],
      "name": "supportsInterface",
      "outputs": [
        {
          "internalType": "bool",
          "name": "",
          "type": "bool"
        }
      ],
      "stateMutability": "view",
      "type": "function"
    },
    {
      "inputs": [],
      "name": "symbol",
      "outputs": [
        {
          "internalType": "string",
          "name": "",
          "type": "string"
        }
      ],
      "stateMutability": "view",
      "type": "function"
    },
    {
      "inputs": [
        {
          "internalType": "uint256",
          "name": "tokenId",
          "type": "uint256"
        }
      ],
      "name": "tokenURI",
      "outputs": [
        {
          "internalType": "string",
          "name": "",
          "type": "string"
        }
      ],
      "stateMutability": "view",
      "type": "function"
    },
    {
      "inputs": [
        {
          "internalType": "address",
          "name": "from",
          "type": "address"
        },
        {
          "internalType": "address",
          "name": "to",
          "type": "address"
        },
        {
          "internalType": "uint256",
          "name": "tokenId",
          "type": "uint256"
        }
      ],
      "name": "transferFrom",
      "outputs": [],
      "stateMutability": "nonpayable",
      "type": "function"
    }
  ],
  "bytecode": "0x60806040523480156200001157600080fd5b506040518060400160405280600e81526020017f416e6a616c6953696b61727761720000000000000000000000000000000000008152506040518060400160405280600281526020017f415300000000000000000000000000000000000000000000000000000000000081525081600090816200008f91906200062c565b508060019081620000a191906200062c565b505050600567ffffffffffffffff811115620000c257620000c1620003bd565b5b604051908082528060200260200182016040528015620000f757816020015b6060815260200190600190039081620000e15790505b50600890805190602001906200010f929190620002c5565b506040518060400160405280601681526020017f53636f6f627920646f2061732073757065726865726f0000000000000000000081525060086000815481106200015e576200015d62000713565b5b9060005260206000200190816200017691906200062c565b50604051806060016040528060328152602001620034ec603291396008600181548110620001a957620001a862000713565b5b906000526020600020019081620001c191906200062c565b50604051806060016040528060268152602001620034c6602691396008600281548110620001f457620001f362000713565b5b9060005260206000200190816200020c91906200062c565b506040518060600160405280602781526020016200351e6027913960086003815481106200023f576200023e62000713565b5b9060005260206000200190816200025791906200062c565b506040518060400160405280601f81526020017f61206d616e2020706c6179696e672070756267206469676974616c20617274008152506008600481548110620002a657620002a562000713565b5b906000526020600020019081620002be91906200062c565b5062000742565b82805482825590600052602060002090810192821562000312579160200282015b82811115620003115782518290816200030091906200062c565b5091602001919060010190620002e6565b5b50905062000321919062000325565b5090565b5b808211156200034957600081816200033f91906200034d565b5060010162000326565b5090565b5080546200035b906200041b565b6000825580601f106200036f575062000390565b601f0160209004906000526020600020908101906200038f919062000393565b5b50565b5b80821115620003ae57600081600090555060010162000394565b5090565b600081519050919050565b7f4e487b7100000000000000000000000000000000000000000000000000000000600052604160045260246000fd5b7f4e487b7100000000000000000000000000000000000000000000000000000000600052602260045260246000fd5b600060028204905060018216806200043457607f821691505b6020821081036200044a5762000449620003ec565b5b50919050565b60008190508160005260206000209050919050565b60006020601f8301049050919050565b600082821b905092915050565b600060088302620004b47fffffffffffffffffffffffffffffffffffffffffffffffffffffffffffffffff8262000475565b620004c0868362000475565b95508019841693508086168417925050509392505050565b6000819050919050565b6000819050919050565b60006200050d620005076200050184620004d8565b620004e2565b620004d8565b9050919050565b6000819050919050565b6200052983620004ec565b62000541620005388262000514565b84845462000482565b825550505050565b600090565b6200055862000549565b620005658184846200051e565b505050565b5b818110156200058d57620005816000826200054e565b6001810190506200056b565b5050565b601f821115620005dc57620005a68162000450565b620005b18462000465565b81016020851015620005c1578190505b620005d9620005d08562000465565b8301826200056a565b50505b505050565b600082821c905092915050565b60006200060160001984600802620005e1565b1980831691505092915050565b60006200061c8383620005ee565b9150826002028217905092915050565b6200063782620003b2565b67ffffffffffffffff811115620006535762000652620003bd565b5b6200065f82546200041b565b6200066c82828562000591565b600060209050601f831160018114620006a457600084156200068f578287015190505b6200069b85826200060e565b8655506200070b565b601f198416620006b48662000450565b60005b82811015620006de57848901518255600182019150602085019450602081019050620006b7565b86831015620006fe5784890151620006fa601f891682620005ee565b8355505b6001600288020188555050505b505050505050565b7f4e487b7100000000000000000000000000000000000000000000000000000000600052603260045260246000fd5b612d7480620007526000396000f3fe608060405234801561001057600080fd5b506004361061010b5760003560e01c806370a08231116100a2578063a22cb46511610071578063a22cb465146102de578063b88d4fde146102fa578063c87b56dd14610316578063d0def52114610346578063e985e9c5146103625761010b565b806370a082311461024257806384c4bd4b146102725780638e5a86381461029057806395d89b41146102c05761010b565b806323b872dd116100de57806323b872dd146101aa5780633a1a40fe146101c657806342842e0e146101f65780636352211e146102125761010b565b806301ffc9a71461011057806306fdde0314610140578063081812fc1461015e578063095ea7b31461018e575b600080fd5b61012a60048036038101906101259190611c34565b610392565b6040516101379190611c7c565b60405180910390f35b6101486103f3565b6040516101559190611d27565b60405180910390f35b61017860048036038101906101739190611d7f565b610485565b6040516101859190611ded565b60405180910390f35b6101a860048036038101906101a39190611e34565b6104cb565b005b6101c460048036038101906101bf9190611e74565b6105e2565b005b6101e060048036038101906101db9190611d7f565b610642565b6040516101ed9190611d27565b60405180910390f35b610210600480360381019061020b9190611e74565b6106ee565b005b61022c60048036038101906102279190611d7f565b61070e565b6040516102399190611ded565b60405180910390f35b61025c60048036038101906102579190611ec7565b610794565b6040516102699190611f03565b60405180910390f35b61027a61084b565b6040516102879190611f03565b60405180910390f35b6102aa60048036038101906102a59190611d7f565b610857565b6040516102b79190611d27565b60405180910390f35b6102c8610907565b6040516102d59190611d27565b60405180910390f35b6102f860048036038101906102f39190611f4a565b610999565b005b610314600480360381019061030f91906120bf565b6109af565b005b610330600480360381019061032b9190611d7f565b610a11565b60405161033d9190611d27565b60405180910390f35b610360600480360381019061035b91906121e3565b610b23565b005b61037c6004803603810190610377919061223f565b610b54565b6040516103899190611c7c565b60405180910390f35b6000634906490660e01b7bffffffffffffffffffffffffffffffffffffffffffffffffffffffff1916827bffffffffffffffffffffffffffffffffffffffffffffffffffffffff191614806103ec57506103eb82610be8565b5b9050919050565b606060008054610402906122ae565b80601f016020809104026020016040519081016040528092919081815260200182805461042e906122ae565b801561047b5780601f106104505761010080835404028352916020019161047b565b820191906000526020600020905b81548152906001019060200180831161045e57829003601f168201915b5050505050905090565b600061049082610cca565b6004600083815260200190815260200160002060009054906101000a900473ffffffffffffffffffffffffffffffffffffffff169050919050565b60006104d68261070e565b90508073ffffffffffffffffffffffffffffffffffffffff168373ffffffffffffffffffffffffffffffffffffffff1603610546576040517f08c379a000000000000000000000000000000000000000000000000000000000815260040161053d90612351565b60405180910390fd5b8073ffffffffffffffffffffffffffffffffffffffff16610565610d15565b73ffffffffffffffffffffffffffffffffffffffff16148061059457506105938161058e610d15565b610b54565b5b6105d3576040517f08c379a00000000000000000000000000000000000000000000000000000000081526004016105ca906123e3565b60405180910390fd5b6105dd8383610d1d565b505050565b6105f36105ed610d15565b82610dd6565b610632576040517f08c379a000000000000000000000000000000000000000000000000000000000815260040161062990612475565b60405180910390fd5b61063d838383610e6b565b505050565b6008818154811061065257600080fd5b90600052602060002001600091509050805461066d906122ae565b80601f0160208091040260200160405190810160405280929190818152602001828054610699906122ae565b80156106e65780601f106106bb576101008083540402835291602001916106e6565b820191906000526020600020905b8154815290600101906020018083116106c957829003601f168201915b505050505081565b610709838383604051806020016040528060008152506109af565b505050565b60008061071a83611164565b9050600073ffffffffffffffffffffffffffffffffffffffff168173ffffffffffffffffffffffffffffffffffffffff160361078b576040517f08c379a0000000000000000000000000000000000000000000000000000000008152600401610782906124e1565b60405180910390fd5b80915050919050565b60008073ffffffffffffffffffffffffffffffffffffffff168273ffffffffffffffffffffffffffffffffffffffff1603610804576040517f08c379a00000000000000000000000000000000000000000000000000000000081526004016107fb90612573565b60405180910390fd5b600360008373ffffffffffffffffffffffffffffffffffffffff1673ffffffffffffffffffffffffffffffffffffffff168152602001908152602001600020549050919050565b60078060000154905081565b60606008828154811061086d5761086c612593565b5b906000526020600020018054610882906122ae565b80601f01602080910402602001604051908101604052809291908181526020018280546108ae906122ae565b80156108fb5780601f106108d0576101008083540402835291602001916108fb565b820191906000526020600020905b8154815290600101906020018083116108de57829003601f168201915b50505050509050919050565b606060018054610916906122ae565b80601f0160208091040260200160405190810160405280929190818152602001828054610942906122ae565b801561098f5780601f106109645761010080835404028352916020019161098f565b820191906000526020600020905b81548152906001019060200180831161097257829003601f168201915b5050505050905090565b6109ab6109a4610d15565b83836111a1565b5050565b6109c06109ba610d15565b83610dd6565b6109ff576040517f08c379a00000000000000000000000000000000000000000000000000000000081526004016109f690612475565b60405180910390fd5b610a0b8484848461130d565b50505050565b6060610a1c82610cca565b6000600660008481526020019081526020016000208054610a3c906122ae565b80601f0160208091040260200160405190810160405280929190818152602001828054610a68906122ae565b8015610ab55780601f10610a8a57610100808354040283529160200191610ab5565b820191906000526020600020905b815481529060010190602001808311610a9857829003601f168201915b505050505090506000610ac6611369565b90506000815103610adb578192505050610b1e565b600082511115610b10578082604051602001610af89291906125fe565b60405160208183030381529060405292505050610b1e565b610b1984611380565b925050505b919050565b610b2d60076113e8565b6000610b3960076113fe565b9050610b45838261140c565b610b4f818361142a565b505050565b6000600560008473ffffffffffffffffffffffffffffffffffffffff1673ffffffffffffffffffffffffffffffffffffffff16815260200190815260200160002060008373ffffffffffffffffffffffffffffffffffffffff1673ffffffffffffffffffffffffffffffffffffffff16815260200190815260200160002060009054906101000a900460ff16905092915050565b60007f80ac58cd000000000000000000000000000000000000000000000000000000007bffffffffffffffffffffffffffffffffffffffffffffffffffffffff1916827bffffffffffffffffffffffffffffffffffffffffffffffffffffffff19161480610cb357507f5b5e139f000000000000000000000000000000000000000000000000000000007bffffffffffffffffffffffffffffffffffffffffffffffffffffffff1916827bffffffffffffffffffffffffffffffffffffffffffffffffffffffff1916145b80610cc35750610cc2826114ce565b5b9050919050565b610cd381611538565b610d12576040517f08c379a0000000000000000000000000000000000000000000000000000000008152600401610d09906124e1565b60405180910390fd5b50565b600033905090565b816004600083815260200190815260200160002060006101000a81548173ffffffffffffffffffffffffffffffffffffffff021916908373ffffffffffffffffffffffffffffffffffffffff160217905550808273ffffffffffffffffffffffffffffffffffffffff16610d908361070e565b73ffffffffffffffffffffffffffffffffffffffff167f8c5be1e5ebec7d5bd14f71427d1e84f3dd0314c0f7b2291e5b200ac8c7c3b92560405160405180910390a45050565b600080610de28361070e565b90508073ffffffffffffffffffffffffffffffffffffffff168473ffffffffffffffffffffffffffffffffffffffff161480610e245750610e238185610b54565b5b80610e6257508373ffffffffffffffffffffffffffffffffffffffff16610e4a84610485565b73ffffffffffffffffffffffffffffffffffffffff16145b91505092915050565b8273ffffffffffffffffffffffffffffffffffffffff16610e8b8261070e565b73ffffffffffffffffffffffffffffffffffffffff1614610ee1576040517f08c379a0000000000000000000000000000000000000000000000000000000008152600401610ed890612694565b60405180910390fd5b600073ffffffffffffffffffffffffffffffffffffffff168273ffffffffffffffffffffffffffffffffffffffff1603610f50576040517f08c379a0000000000000000000000000000000000000000000000000000000008152600401610f4790612726565b60405180910390fd5b610f5d8383836001611579565b8273ffffffffffffffffffffffffffffffffffffffff16610f7d8261070e565b73ffffffffffffffffffffffffffffffffffffffff1614610fd3576040517f08c379a0000000000000000000000000000000000000000000000000000000008152600401610fca90612694565b60405180910390fd5b6004600082815260200190815260200160002060006101000a81549073ffffffffffffffffffffffffffffffffffffffff02191690556001600360008573ffffffffffffffffffffffffffffffffffffffff1673ffffffffffffffffffffffffffffffffffffffff168152602001908152602001600020600082825403925050819055506001600360008473ffffffffffffffffffffffffffffffffffffffff1673ffffffffffffffffffffffffffffffffffffffff16815260200190815260200160002060008282540192505081905550816002600083815260200190815260200160002060006101000a81548173ffffffffffffffffffffffffffffffffffffffff021916908373ffffffffffffffffffffffffffffffffffffffff160217905550808273ffffffffffffffffffffffffffffffffffffffff168473ffffffffffffffffffffffffffffffffffffffff167fddf252ad1be2c89b69c2b068fc378daa952ba7f163c4a11628f55a4df523b3ef60405160405180910390a461115f838383600161157f565b505050565b60006002600083815260200190815260200160002060009054906101000a900473ffffffffffffffffffffffffffffffffffffffff169050919050565b8173ffffffffffffffffffffffffffffffffffffffff168373ffffffffffffffffffffffffffffffffffffffff160361120f576040517f08c379a000000000000000000000000000000000000000000000000000000000815260040161120690612792565b60405180910390fd5b80600560008573ffffffffffffffffffffffffffffffffffffffff1673ffffffffffffffffffffffffffffffffffffffff16815260200190815260200160002060008473ffffffffffffffffffffffffffffffffffffffff1673ffffffffffffffffffffffffffffffffffffffff16815260200190815260200160002060006101000a81548160ff0219169083151502179055508173ffffffffffffffffffffffffffffffffffffffff168373ffffffffffffffffffffffffffffffffffffffff167f17307eab39ab6107e8899845ad3d59bd9653f200f220920489ca2b5937696c31836040516113009190611c7c565b60405180910390a3505050565b611318848484610e6b565b61132484848484611585565b611363576040517f08c379a000000000000000000000000000000000000000000000000000000000815260040161135a90612824565b60405180910390fd5b50505050565b606060405180602001604052806000815250905090565b606061138b82610cca565b6000611395611369565b905060008151116113b557604051806020016040528060008152506113e0565b806113bf8461170c565b6040516020016113d09291906125fe565b6040516020818303038152906040525b915050919050565b6001816000016000828254019250508190555050565b600081600001549050919050565b6114268282604051806020016040528060008152506117da565b5050565b61143382611538565b611472576040517f08c379a0000000000000000000000000000000000000000000000000000000008152600401611469906128b6565b60405180910390fd5b806006600084815260200190815260200160002090816114929190612a82565b507ff8e1a15aba9398e019f0b49df1a4fde98ee17ae345cb5f6b5e2c27f5033e8ce7826040516114c29190611f03565b60405180910390a15050565b60007f01ffc9a7000000000000000000000000000000000000000000000000000000007bffffffffffffffffffffffffffffffffffffffffffffffffffffffff1916827bffffffffffffffffffffffffffffffffffffffffffffffffffffffff1916149050919050565b60008073ffffffffffffffffffffffffffffffffffffffff1661155a83611164565b73ffffffffffffffffffffffffffffffffffffffff1614159050919050565b50505050565b50505050565b60006115a68473ffffffffffffffffffffffffffffffffffffffff16611835565b156116ff578373ffffffffffffffffffffffffffffffffffffffff1663150b7a026115cf610d15565b8786866040518563ffffffff1660e01b81526004016115f19493929190612ba9565b6020604051808303816000875af192505050801561162d57506040513d601f19601f8201168201806040525081019061162a9190612c0a565b60015b6116af573d806000811461165d576040519150601f19603f3d011682016040523d82523d6000602084013e611662565b606091505b5060008151036116a7576040517f08c379a000000000000000000000000000000000000000000000000000000000815260040161169e90612824565b60405180910390fd5b805181602001fd5b63150b7a0260e01b7bffffffffffffffffffffffffffffffffffffffffffffffffffffffff1916817bffffffffffffffffffffffffffffffffffffffffffffffffffffffff191614915050611704565b600190505b949350505050565b60606000600161171b84611858565b01905060008167ffffffffffffffff81111561173a57611739611f94565b5b6040519080825280601f01601f19166020018201604052801561176c5781602001600182028036833780820191505090505b509050600082602001820190505b6001156117cf578080600190039150507f3031323334353637383961626364656600000000000000000000000000000000600a86061a8153600a85816117c3576117c2612c37565b5b0494506000850361177a575b819350505050919050565b6117e483836119ab565b6117f16000848484611585565b611830576040517f08c379a000000000000000000000000000000000000000000000000000000000815260040161182790612824565b60405180910390fd5b505050565b6000808273ffffffffffffffffffffffffffffffffffffffff163b119050919050565b600080600090507a184f03e93ff9f4daa797ed6e38ed64bf6a1f01000000000000000083106118b6577a184f03e93ff9f4daa797ed6e38ed64bf6a1f01000000000000000083816118ac576118ab612c37565b5b0492506040810190505b6d04ee2d6d415b85acef810000000083106118f3576d04ee2d6d415b85acef810000000083816118e9576118e8612c37565b5b0492506020810190505b662386f26fc10000831061192257662386f26fc10000838161191857611917612c37565b5b0492506010810190505b6305f5e100831061194b576305f5e100838161194157611940612c37565b5b0492506008810190505b612710831061197057612710838161196657611965612c37565b5b0492506004810190505b60648310611993576064838161198957611988612c37565b5b0492506002810190505b600a83106119a2576001810190505b80915050919050565b600073ffffffffffffffffffffffffffffffffffffffff168273ffffffffffffffffffffffffffffffffffffffff1603611a1a576040517f08c379a0000000000000000000000000000000000000000000000000000000008152600401611a1190612cb2565b60405180910390fd5b611a2381611538565b15611a63576040517f08c379a0000000000000000000000000000000000000000000000000000000008152600401611a5a90612d1e565b60405180910390fd5b611a71600083836001611579565b611a7a81611538565b15611aba576040517f08c379a0000000000000000000000000000000000000000000000000000000008152600401611ab190612d1e565b60405180910390fd5b6001600360008473ffffffffffffffffffffffffffffffffffffffff1673ffffffffffffffffffffffffffffffffffffffff16815260200190815260200160002060008282540192505081905550816002600083815260200190815260200160002060006101000a81548173ffffffffffffffffffffffffffffffffffffffff021916908373ffffffffffffffffffffffffffffffffffffffff160217905550808273ffffffffffffffffffffffffffffffffffffffff16600073ffffffffffffffffffffffffffffffffffffffff167fddf252ad1be2c89b69c2b068fc378daa952ba7f163c4a11628f55a4df523b3ef60405160405180910390a4611bc460008383600161157f565b5050565b6000604051905090565b600080fd5b600080fd5b60007fffffffff0000000000000000000000000000000000000000000000000000000082169050919050565b611c1181611bdc565b8114611c1c57600080fd5b50565b600081359050611c2e81611c08565b92915050565b600060208284031215611c4a57611c49611bd2565b5b6000611c5884828501611c1f565b91505092915050565b60008115159050919050565b611c7681611c61565b82525050565b6000602082019050611c916000830184611c6d565b92915050565b600081519050919050565b600082825260208201905092915050565b60005b83811015611cd1578082015181840152602081019050611cb6565b60008484015250505050565b6000601f19601f8301169050919050565b6000611cf982611c97565b611d038185611ca2565b9350611d13818560208601611cb3565b611d1c81611cdd565b840191505092915050565b60006020820190508181036000830152611d418184611cee565b905092915050565b6000819050919050565b611d5c81611d49565b8114611d6757600080fd5b50565b600081359050611d7981611d53565b92915050565b600060208284031215611d9557611d94611bd2565b5b6000611da384828501611d6a565b91505092915050565b600073ffffffffffffffffffffffffffffffffffffffff82169050919050565b6000611dd782611dac565b9050919050565b611de781611dcc565b82525050565b6000602082019050611e026000830184611dde565b92915050565b611e1181611dcc565b8114611e1c57600080fd5b50565b600081359050611e2e81611e08565b92915050565b60008060408385031215611e4b57611e4a611bd2565b5b6000611e5985828601611e1f565b9250506020611e6a85828601611d6a565b9150509250929050565b600080600060608486031215611e8d57611e8c611bd2565b5b6000611e9b86828701611e1f565b9350506020611eac86828701611e1f565b9250506040611ebd86828701611d6a565b9150509250925092565b600060208284031215611edd57611edc611bd2565b5b6000611eeb84828501611e1f565b91505092915050565b611efd81611d49565b82525050565b6000602082019050611f186000830184611ef4565b92915050565b611f2781611c61565b8114611f3257600080fd5b50565b600081359050611f4481611f1e565b92915050565b60008060408385031215611f6157611f60611bd2565b5b6000611f6f85828601611e1f565b9250506020611f8085828601611f35565b9150509250929050565b600080fd5b600080fd5b7f4e487b7100000000000000000000000000000000000000000000000000000000600052604160045260246000fd5b611fcc82611cdd565b810181811067ffffffffffffffff82111715611feb57611fea611f94565b5b80604052505050565b6000611ffe611bc8565b905061200a8282611fc3565b919050565b600067ffffffffffffffff82111561202a57612029611f94565b5b61203382611cdd565b9050602081019050919050565b82818337600083830152505050565b600061206261205d8461200f565b611ff4565b90508281526020810184848401111561207e5761207d611f8f565b5b612089848285612040565b509392505050565b600082601f8301126120a6576120a5611f8a565b5b81356120b684826020860161204f565b91505092915050565b600080600080608085870312156120d9576120d8611bd2565b5b60006120e787828801611e1f565b94505060206120f887828801611e1f565b935050604061210987828801611d6a565b925050606085013567ffffffffffffffff81111561212a57612129611bd7565b5b61213687828801612091565b91505092959194509250565b600067ffffffffffffffff82111561215d5761215c611f94565b5b61216682611cdd565b9050602081019050919050565b600061218661218184612142565b611ff4565b9050828152602081018484840111156121a2576121a1611f8f565b5b6121ad848285612040565b509392505050565b600082601f8301126121ca576121c9611f8a565b5b81356121da848260208601612173565b91505092915050565b600080604083850312156121fa576121f9611bd2565b5b600061220885828601611e1f565b925050602083013567ffffffffffffffff81111561222957612228611bd7565b5b612235858286016121b5565b9150509250929050565b6000806040838503121561225657612255611bd2565b5b600061226485828601611e1f565b925050602061227585828601611e1f565b9150509250929050565b7f4e487b7100000000000000000000000000000000000000000000000000000000600052602260045260246000fd5b600060028204905060018216806122c657607f821691505b6020821081036122d9576122d861227f565b5b50919050565b7f4552433732313a20617070726f76616c20746f2063757272656e74206f776e6560008201527f7200000000000000000000000000000000000000000000000000000000000000602082015250565b600061233b602183611ca2565b9150612346826122df565b604082019050919050565b6000602082019050818103600083015261236a8161232e565b9050919050565b7f4552433732313a20617070726f76652063616c6c6572206973206e6f7420746f60008201527f6b656e206f776e6572206f7220617070726f76656420666f7220616c6c000000602082015250565b60006123cd603d83611ca2565b91506123d882612371565b604082019050919050565b600060208201905081810360008301526123fc816123c0565b9050919050565b7f4552433732313a2063616c6c6572206973206e6f7420746f6b656e206f776e6560008201527f72206f7220617070726f76656400000000000000000000000000000000000000602082015250565b600061245f602d83611ca2565b915061246a82612403565b604082019050919050565b6000602082019050818103600083015261248e81612452565b9050919050565b7f4552433732313a20696e76616c696420746f6b656e2049440000000000000000600082015250565b60006124cb601883611ca2565b91506124d682612495565b602082019050919050565b600060208201905081810360008301526124fa816124be565b9050919050565b7f4552433732313a2061646472657373207a65726f206973206e6f74206120766160008201527f6c6964206f776e65720000000000000000000000000000000000000000000000602082015250565b600061255d602983611ca2565b915061256882612501565b604082019050919050565b6000602082019050818103600083015261258c81612550565b9050919050565b7f4e487b7100000000000000000000000000000000000000000000000000000000600052603260045260246000fd5b600081905092915050565b60006125d882611c97565b6125e281856125c2565b93506125f2818560208601611cb3565b80840191505092915050565b600061260a82856125cd565b915061261682846125cd565b91508190509392505050565b7f4552433732313a207472616e736665722066726f6d20696e636f72726563742060008201527f6f776e6572000000000000000000000000000000000000000000000000000000602082015250565b600061267e602583611ca2565b915061268982612622565b604082019050919050565b600060208201905081810360008301526126ad81612671565b9050919050565b7f4552433732313a207472616e7366657220746f20746865207a65726f2061646460008201527f7265737300000000000000000000000000000000000000000000000000000000602082015250565b6000612710602483611ca2565b915061271b826126b4565b604082019050919050565b6000602082019050818103600083015261273f81612703565b9050919050565b7f4552433732313a20617070726f766520746f2063616c6c657200000000000000600082015250565b600061277c601983611ca2565b915061278782612746565b602082019050919050565b600060208201905081810360008301526127ab8161276f565b9050919050565b7f4552433732313a207472616e7366657220746f206e6f6e20455243373231526560008201527f63656976657220696d706c656d656e7465720000000000000000000000000000602082015250565b600061280e603283611ca2565b9150612819826127b2565b604082019050919050565b6000602082019050818103600083015261283d81612801565b9050919050565b7f45524337323155524953746f726167653a2055524920736574206f66206e6f6e60008201527f6578697374656e7420746f6b656e000000000000000000000000000000000000602082015250565b60006128a0602e83611ca2565b91506128ab82612844565b604082019050919050565b600060208201905081810360008301526128cf81612893565b9050919050565b60008190508160005260206000209050919050565b60006020601f8301049050919050565b600082821b905092915050565b6000600883026129387fffffffffffffffffffffffffffffffffffffffffffffffffffffffffffffffff826128fb565b61294286836128fb565b95508019841693508086168417925050509392505050565b6000819050919050565b600061297f61297a61297584611d49565b61295a565b611d49565b9050919050565b6000819050919050565b61299983612964565b6129ad6129a582612986565b848454612908565b825550505050565b600090565b6129c26129b5565b6129cd818484612990565b505050565b5b818110156129f1576129e66000826129ba565b6001810190506129d3565b5050565b601f821115612a3657612a07816128d6565b612a10846128eb565b81016020851015612a1f578190505b612a33612a2b856128eb565b8301826129d2565b50505b505050565b600082821c905092915050565b6000612a5960001984600802612a3b565b1980831691505092915050565b6000612a728383612a48565b9150826002028217905092915050565b612a8b82611c97565b67ffffffffffffffff811115612aa457612aa3611f94565b5b612aae82546122ae565b612ab98282856129f5565b600060209050601f831160018114612aec5760008415612ada578287015190505b612ae48582612a66565b865550612b4c565b601f198416612afa866128d6565b60005b82811015612b2257848901518255600182019150602085019450602081019050612afd565b86831015612b3f5784890151612b3b601f891682612a48565b8355505b6001600288020188555050505b505050505050565b600081519050919050565b600082825260208201905092915050565b6000612b7b82612b54565b612b858185612b5f565b9350612b95818560208601611cb3565b612b9e81611cdd565b840191505092915050565b6000608082019050612bbe6000830187611dde565b612bcb6020830186611dde565b612bd86040830185611ef4565b8181036060830152612bea8184612b70565b905095945050505050565b600081519050612c0481611c08565b92915050565b600060208284031215612c2057612c1f611bd2565b5b6000612c2e84828501612bf5565b91505092915050565b7f4e487b7100000000000000000000000000000000000000000000000000000000600052601260045260246000fd5b7f4552433732313a206d696e7420746f20746865207a65726f2061646472657373600082015250565b6000612c9c602083611ca2565b9150612ca782612c66565b602082019050919050565b60006020820190508181036000830152612ccb81612c8f565b9050919050565b7f4552433732313a20746f6b656e20616c7265616479206d696e74656400000000600082015250565b6000612d08601c83611ca2565b9150612d1382612cd2565b602082019050919050565b60006020820190508181036000830152612d3781612cfb565b905091905056fea264697066735822122066e3074ea8634c49269e626caaa46881a629a36ec2b30a6fe77616a39051fffe64736f6c6343000813003343617420706c6179696e672077697468206375746520707570706965732020636172746f6f6e7261696e696e67206c6f666920696e2062656175746966756c2076696c6c616765206f6620696e6469612064726177696e67437574652050697a7a61207769746820636f726e20746f7070696e677320417374686574686963",
  "linkReferences": {},
  "deployedLinkReferences": {}
}